:100000000C9463000C948B000C948B000C948B006C
:100010000C948B000C948B000C948B000C948B0034
:100020000C948B000C948B000C948B000C94D806D1
:100030000C948B000C948B000C948B000C948B0014
:100040000C948E060C948B000C945C060C94360673
:100050000C948B000C948B000C948B000C948B00F4
:100060000C948B000C948B000000000024002700EF
:100070002A0000000000250028002B0000000000DE
:1000800023002600290004040404040404040202DA
:100090000202020203030303030301020408102007
:1000A0004080010204081020010204081020000012
:1000B0000008000201000003040700000000000027
:1000C0000000D007F50B11241FBECFEFD8E0DEBF34
:1000D000CDBF11E0A0E0B1E0E2E6FDE102C0059095
:1000E0000D92A436B107D9F722E0A4E6B1E001C031
:1000F0001D92AC3CB207E1F710E0C2E6D0E004C0CC
:100100002197FE010E94A30CC136D107C9F70E94B6
:10011000B2080C94A40E0C9400008F929F92AF92A0
:10012000BF92FF920F931F93CF93DF93F090AD0296
:100130002BE02F1508F44CC02091AF0208E512E027
:10014000021B110927FD1395000F111F000F111F2E
:100150002091AE02C8E8D0E0C21BD10927FDD3959B
:10016000CC0FDD1FCC0FDD1F4E010D2E000CAA0899
:10017000BB089801012E000C440B550B28193909B6
:100180004A095B09DC010E94270C24EB30E040E0C7
:1001900050E00E94FD0B820E931EA41EB51E8C160D
:1001A0009D062CF0E801801691060CF4E4012297DC
:1001B000CC0FDD1F2FB7F8948F2D90E0FC01EE0FD0
:1001C000FF1FE80FF91FE35FFD4FD283C1832FBFED
:1001D000DF91CF911F910F91FF90BF90AF909F90B3
:1001E0008F90089596E0899FD0011124AE5CBD4F99
:1001F00090967C936E935F9791E091969C939197E4
:10020000E0919F02F091A00290919E02992339F013
:10021000309751F0811108C080914E0209943097B7
:1002200019F05C968C91FACF0895CF92DF92EF92FD
:10023000FF920F931F9396E0899FF0011124EE5CCB
:10024000FD4F11A2278D30A12130310551F178F0F9
:100250002230310509F451C02330310509F452C070
:100260001F910F91FF90EF90DF90CF90089566233C
:10027000B9F361E070E00E94F2002FB7F89480912A
:100280006C0190916D01A0916E01B0916F012FBF33
:1002900080938A0290938B02A0938C02B0938D027C
:1002A000DFCF9FB7F894C0906C01D0906D01E090C3
:1002B0006E01F0906F019FBF00918A0210918B0236
:1002C00020918C0230918D02C01AD10AE20AF30A01
:1002D00000919C0210919D0230E020E00C151D055C
:1002E0002E053F0550F462E070E01F910F91FF90E2
:1002F000EF90DF90CF900C94F2006111B1CF63E0EA
:1003000070E0F3CF70E060E0F0CFAF92BF92CF9299
:10031000DF92EF92FF920F931F93CF93DF936C01C5
:100320007B018B01040F151FEB015E01AE18BF08A6
:10033000C017D10759F06991D601ED91FC91019058
:10034000F081E02DC6010995892B79F7C501DF9170
:10035000CF911F910F91FF90EF90DF90CF90BF90C2
:10036000AF900895FC01538D448D252F30E0842FEC
:1003700090E0821B930B541710F0CF9608950197CD
:100380000895FC01918D828D981761F0A28DAE0FBA
:10039000BF2FB11D5D968C91928D9F5F9F73928F41
:1003A00090E008958FEF9FEF0895FC01918D828D6D
:1003B000981731F0828DE80FF11D858D90E008953A
:1003C0008FEF9FEF0895FC01918D228D892F90E092
:1003D000805C9F4F821B91098F739927089580E756
:1003E00091E00E94E30121E0892B09F420E0822FB3
:1003F000089580E090E0892B29F00E94EF0181119F
:100400000C9400000895FC01A48DA80FB92FB11D14
:10041000A35ABF4F2C91848D90E001968F7399273A
:10042000848FA689B7892C93A089B1898C91837018
:1004300080648C93938D848D981306C00288F38911
:10044000E02D80818F7D80830895EF92FF920F933E
:100450001F93CF93DF93EC0181E0888F9B8D8C8D70
:1004600098131AC0E889F989808185FF15C09FB764
:10047000F894EE89FF896083E889F9898081837027
:10048000806480839FBF81E090E0DF91CF911F91D6
:100490000F91FF90EF900895F62E0B8D10E00F5FF7
:1004A0001F4F0F731127E02E8C8D8E110CC00FB6CD
:1004B00007FCFACFE889F989808185FFF5CFCE0165
:1004C0000E940302F1CFEB8DEC0FFD2FF11DE35ADB
:1004D000FF4FF0829FB7F8940B8FEA89FB898081E8
:1004E0008062CFCFCF93DF93EC01888D8823B9F062
:1004F000AA89BB89E889F9898C9185FD03C080812F
:1005000086FD0DC00FB607FCF7CF8C9185FFF2CFAB
:10051000808185FFEDCFCE010E940302E9CFDF91FC
:10052000CF910895833081F028F4813099F08230A2
:10053000A9F008958730A9F08830C9F08430B1F46B
:10054000809180008F7D03C0809180008F778093A1
:100550008000089584B58F7784BD089584B58F7D1C
:10056000FBCF8091B0008F778093B0000895809189
:10057000B0008F7DF9CFCF93DF93282F30E0F901C2
:10058000E255FF4F8491F901E656FF4FD491F901EE
:10059000EA57FF4FC491CC23A1F081110E9492022F
:1005A000EC2FF0E0EE0FFF1FE458FF4FA591B49140
:1005B000EC91ED2381E090E009F480E0DF91CF91B0
:1005C000089580E090E0FACF862F0C94BB021F9331
:1005D000CF93DF93282F30E0F901E255FF4F84914C
:1005E000F901E656FF4FD491F901EA57FF4FC49144
:1005F000CC23A9F0162F81110E949202EC2FF0E07B
:10060000EE0FFF1FEE58FF4FA591B4918FB7F894EE
:10061000EC91111108C0D095DE23DC938FBFDF91E0
:10062000CF911F910895DE2BF8CF862F642F0C9465
:10063000E702CF93DF9390E0FC01E656FF4F249151
:100640008A579F4FFC0184918823C9F090E0880F5E
:10065000991FFC01E859FF4FA591B491FC01EE5898
:10066000FF4FC591D49161110DC09FB7F8948C9143
:10067000209582238C938881282328839FBFDF9134
:10068000CF910895623051F49FB7F8943C91822F36
:10069000809583238C93E8812E2BEFCF8FB7F8942E
:1006A000EC912E2B2C938FBFEACF862F642F0C94C6
:1006B00019033FB7F8948091660190916701A0916A
:1006C0006801B091690126B5A89B05C02F3F19F0BC
:1006D0000196A11DB11D3FBFBA2FA92F982F8827C2
:1006E000BC01CD01620F711D811D911D42E0660F9D
:1006F000771F881F991F4A95D1F708958F929F926F
:10070000AF92BF92CF92DF92EF92FF920E94590375
:100710004B015C0188EEC82E83E0D82EE12CF12C31
:100720000E945903681979098A099B09683E734038
:1007300081059105A8F321E0C21AD108E108F1086A
:1007400088EE880E83E0981EA11CB11CC114D10450
:10075000E104F10429F7FF90EF90DF90CF90BF9074
:10076000AF909F908F900895089590E080E0089555
:1007700060E085E10E94E70260E084E10E94E70218
:1007800060E083E10E94E70260E082E10E94E7020C
:1007900060E081E10E94E70260E080E10E94E70200
:1007A00060E08FE00C94E70201978830910508F033
:1007B0007FC0FC01E152FC4F61E00C94A30CE70305
:1007C000ED03FF030D041C04220434043E0484E101
:1007D0000E94E70261E083E12DC08FE00E94E70202
:1007E00061E080E10E94E70261E085E10E94E702AA
:1007F00061E083E10E94E70261E082E11BC08FE0DB
:100800000E94E70261E080E10E94E70261E085E189
:100810000E94E70261E081E1EDCF80E10E94E70202
:1008200061E085E10E94E70261E081E10E94E70268
:1008300061E084E10C94E7028FE00E94E70261E04E
:1008400084E1E2CF8FE00E94E70261E084E10E9450
:10085000E70261E085E10E94E70261E081E10E9438
:10086000E70261E082E1B4CF8FE00E94E70261E03D
:1008700080E10E94E70261E081E1DCCF8FE00E942D
:10088000E70261E084E10E94E70261E085E10E9405
:10089000E70261E081E10E94E70261E082E10E94FB
:1008A000E70261E083E10E94E70261E080E1C2CFFC
:1008B00061E08FE00E94E70261E084E10E94E702CC
:1008C00061E085E10E94E70261E081E10E94E702C8
:1008D00061E082E1E8CFCF93DF93EC0160E08E81AD
:1008E0000E94E70261E08E810E94E70260E08E8153
:1008F0000E94E7028BE891E00197F1F7DF91CF9139
:100900000895CF92DF92EF92FF920F931F93CF93B0
:10091000DF936C017C0187E0E80EF11CD0E0C0E0C1
:10092000062F10E0B8010C2E02C0759567950A9449
:10093000E2F76170F70181917F010E94E702219641
:10094000C430D10579F7C601DF91CF911F910F9186
:10095000FF90EF90DF90CF900C946B04CF92DF92DA
:10096000EF92FF920F931F93CF93DF93EC01F62E3C
:10097000642F8C810E94E7028D818F3F19F060E027
:100980000E94E7020F2D10E08F8584FF25C06E01C5
:1009900087E0C80ED11CF12CE12CB8010E2C02C04E
:1009A000759567950A94E2F76170F60181916F0180
:1009B0000E94E702FFEFEF1AFF0A88E0E816F10451
:1009C00061F7CE01DF91CF911F910F91FF90EF90D2
:1009D000DF90CF900C946B04B80184E07595679517
:1009E0008A95E1F7CE010E9481046F2DCE01DF913F
:1009F000CF911F910F91FF90EF90DF90CF900C94CB
:100A0000810440E0682F80EB92E00C94AE0481E01A
:100A10000E9401058BE39FE10197F1F70895CF93C1
:100A2000DF93823029F49091BF0298609093BF02C7
:100A30008093C3021092C40280E48093C50280E1D7
:100A40008093C60280E58093C70261E08091B40282
:100A50000E9419038091B5028F3F19F061E00E9456
:100A6000190361E08091B6020E941903C0EBD2E045
:100A70009E01205B32408091BF0284FD0BC084E068
:100A800090E021962817390744F461E08E810E9496
:100A90001903EECF88E090E0F4CF8BE39DE001975F
:100AA000F1F760E08091B4020E94E70260E080917B
:100AB000B6020E94E7028091B5028F3F19F060E014
:100AC0000E94E7028091BF0284FD34C063E080EBA6
:100AD00092E00E948104CBE4D6E4CE010197F1F7C5
:100AE00063E080EB92E00E9481042197F1F763E0DC
:100AF00080EB92E00E94810483E592E00197F1F798
:100B000062E080EB92E00E9481048091BF028062EB
:100B10000E94010584E08093C0028CE00E940105E0
:100B20000E94070582E08093C10286E0DF91CF91A9
:100B30000C94010580620E9401058BE496E4019704
:100B4000F1F78091BF0280620E94010583E592E087
:100B50000197F1F78091BF0280620E940105D5CF15
:100B6000E1E08091C3028111E0E0E195F0E0E05521
:100B7000FD4F848980680C94010541E00E94AE0419
:100B800081E090E00895FC0101900020E9F73197A1
:100B9000AF01481B590BBC0180EB92E00C9485011E
:100BA000FC0180819181009711F00C94450D08950E
:100BB0000F931F93CF93DF93EC0188819981009766
:100BC00059F02A813B812617370730F081E0DF9109
:100BD000CF911F910F9108958B016F5F7F4F0E94FE
:100BE000CE0D009759F0998388831B830A832C814B
:100BF0003D81232B59F7FC011082E8CF80E0E7CF3D
:100C0000EF92FF920F931F93CF93DF93EC017B0141
:100C1000FB0101900020E9F731978F01061B170BAC
:100C2000B8010E94D80528813981811113C021158E
:100C3000310519F0C9010E94450D198218821D82E3
:100C40001C821B821A82DF91CF911F910F91FF901E
:100C5000EF9008951D830C83B701C901DF91CF91F7
:100C60001F910F91FF90EF900C949D0E1F920F9289
:100C70000FB60F9211242F933F934F935F936F936F
:100C80007F938F939F93AF93BF93EF93FF9380E7EF
:100C900091E00E940302FF91EF91BF91AF919F916C
:100CA0008F917F916F915F914F913F912F910F9015
:100CB0000FBE0F901F9018951F920F920FB60F92B4
:100CC00011242F938F939F93EF93FF93E0918001D3
:100CD000F09181018081E0918601F091870182FD90
:100CE0001BC09081809189018F5F8F7320918A0151
:100CF000821741F0E0918901F0E0E059FE4F958FB5
:100D000080938901FF91EF919F918F912F910F9087
:100D10000FBE0F901F9018958081F4CF1F920F92F5
:100D20000FB60F9211242F933F938F939F93AF93FE
:100D3000BF9380916C0190916D01A0916E01B09173
:100D40006F013091650123E0230F2D3758F501968F
:100D5000A11DB11D2093650180936C0190936D01DD
:100D6000A0936E01B0936F0180916601909167012D
:100D7000A0916801B09169010196A11DB11D8093F8
:100D8000660190936701A0936801B0936901BF91D8
:100D9000AF919F918F913F912F910F900FBE0F9028
:100DA0001F90189526E8230F0296A11DB11DD2CFE2
:100DB0001F920F920FB60F9211242F933F934F93D0
:100DC0005F936F937F938F939F93AF93BF93CF93D3
:100DD000DF93EF93FF9380916401C0913102D0E0E3
:100DE00087FF24C0109285001092840080916401D6
:100DF0008F5F8093640180916401082E000C990B31
:100E00008C179D0724F4809164018C30C4F180918B
:100E1000840090918500049680349C4908F47AC03F
:100E20008091840090918500049676C08091640141
:100E3000082E000C990B8C179D07C4F6E0916401F5
:100E40008E2FEE0F990BFC01EE0FFF1FE80FF91F1D
:100E5000E35FFD4F808186FFC9CFE09164018E2F53
:100E6000EE0F990BFC01EE0FFF1FE80FF91FE35F78
:100E7000FD4F808160E08F730E94E702B7CF209121
:100E8000840030918500E09164018E2FEE0F990B64
:100E9000FC01EE0FFF1FE80FF91FE35FFD4F81819B
:100EA0009281820F931F9093890080938800E09134
:100EB00064018E2FEE0F990BFC01EE0FFF1FE80F60
:100EC000F91FE35FFD4F808186FF11C0E09164014F
:100ED0008E2FEE0F990BFC01EE0FFF1FE80FF91F8D
:100EE000E35FFD4F808161E08F730E94E702FF9115
:100EF000EF91DF91CF91BF91AF919F918F917F91B2
:100F00006F915F914F913F912F910F900FBE0F9076
:100F10001F90189580E49CE9909389008093880045
:100F20008FEF80936401E3CFEF92FF920F931F93B3
:100F3000CF93DF93EC017B01198218821B821A8206
:100F40001D821C82FB0101900020E9F731978F017F
:100F5000061B170BB8010E94D80528813981811121
:100F600013C02115310519F0C9010E94450D1982E0
:100F700018821D821C821B821A82DF91CF911F91E1
:100F80000F91FF90EF9008951D830C83B701C90165
:100F9000DF91CF911F910F91FF90EF900C949D0ED8
:100FA000CF93109273011092720188EE93E0A0E04B
:100FB000B0E08093740190937501A0937601B09393
:100FC00077018DE191E0909371018093700185EC40
:100FD00090E090937D0180937C0184EC90E090936D
:100FE0007F0180937E0180EC90E09093810180935B
:100FF000800181EC90E0909383018093820182ECE8
:1010000090E0909385018093840186EC90E090932A
:101010008701809386011092890110928A011092B3
:101020008B0110928C011092B3021092B20289E3EC
:1010300091E09093B1028093B00287E08093B40274
:10104000CFEFC093B50286E08093B60285E080932F
:10105000B70284E08093B80283E08093B90282E013
:101060008093BA021092BB021092BC021092BD0291
:101070001092BE021092BF0281E00E940F05809183
:1010800031028C3008F06BC091E0980F90933102E0
:101090008093AD0290E0FC01EE0FFF1FE80FF91FF7
:1010A000E35FFD4F88EB9BE09283818361E471E015
:1010B00087EA92E00E94940761E571E081EA92E09C
:1010C0000E94940710923402109238021092370254
:1010D000109239028FE291E09093330280933202B2
:1010E000EEE4F2E01082148213821582369682E0DA
:1010F000EA38F807B9F783E091E09093950280937E
:10110000940280E091E0909397028093960284E0AD
:101110008093980283E08093990287E091E0909316
:101120009302809392028AE090E090939B028093D6
:101130009A0284EF91E090939D0280939C0210921A
:10114000A00210929F0210928E0210928F021092B3
:1011500090021092910210929E02CF910895C09336
:10116000AD02A4CFCF93DF93CDB7DEB728970FB6EC
:10117000F894DEBF0FBECDBF789484B5826084BD85
:1011800084B5816084BD85B5826085BD85B581608B
:1011900085BD80916E00816080936E001092810009
:1011A00080918100826080938100809181008160C4
:1011B0008093810080918000816080938000809185
:1011C000B10084608093B1008091B0008160809311
:1011D000B00080917A00846080937A0080917A00D8
:1011E000826080937A0080917A00816080937A0097
:1011F00080917A00806880937A001092C10061E04B
:101200008AE00E94190361E08BE00E94190380913B
:10121000AD028C3008F051C061E089E00E941903F2
:101220008091AD02282F30E0F901EE0FFF1FE20F91
:10123000F31FE35FFD4F9081907C99609083109243
:10124000AE021092AF022CE0622F0E94970C829F98
:10125000B001112430E020E0AB01420F531FFA012E
:10126000EE0FFF1FE40FF51FE35FFD4F908196FD2A
:1012700016C02F5F3F4F2C30310571F781110FC021
:101280001092800082E0809381001092850010927D
:101290008400B19A80916F00826080936F00E0912A
:1012A000AD028E2F90E0FC01EE0FFF1FE80FF91F3B
:1012B000E35FFD4F80818064808390E080E00E9446
:1012C0008D00E0918001F091810182E08083E091C6
:1012D0007C01F0917D011082E0917E01F0917F010F
:1012E0008FEC808310928801E0918401F091850158
:1012F00086E08083E0918201F091830180818061AA
:101300008083E0918201F0918301808188608083F5
:10131000E0918201F0918301808180688083E09177
:101320008201F091830180818F7D808382E00E9421
:101330000F0561E085E10E94190361E084E10E94EC
:10134000190361E083E10E94190361E082E10E94D8
:10135000190361E081E10E94190361E080E10E94CC
:10136000190361E08FE00E941903412C512C3201D6
:10137000439440E0842E40E0942E51E050939E022E
:101380008FB7F89440916C0150916D0160916E019E
:1013900070916F018FBF80918E0290918F02A0910A
:1013A0009002B0919102481B590B6A0B7B0B809104
:1013B0009A0290919B02B0E0A0E084179507A607DF
:1013C000B70708F020C110E080919802181760F468
:1013D000E0919402F0919502E10FF11D62E08081AD
:1013E0000E9419031F5FF0CF312C809199023816AB
:1013F00008F061C0E32CF12CE0919602F091970285
:10140000EE0DFF1D61E080810E941903E0919602BC
:10141000F0919702EE0DFF1D60E080810E94E702CF
:10142000D301C201032C04C0880F991FAA1FBB1F40
:101430000A94D2F75C016C01C094D094212C809165
:101440009802281608F5022D10E0E0919402F09120
:101450009502E00FF11F80810E94BB020C5F1F4FBD
:10146000000F111FF801EE5CFD4F892B41F48081C4
:1014700091818A299B29918380832394E0CF808165
:1014800091818C219D21F7CFE0919602F0919702F6
:10149000EE0DFF1D61E080810E94E70280919602BF
:1014A00090919702E80EF91E60E0F70180810E949A
:1014B000190333949ACF02E312E07801F701878D84
:1014C00090A1892B31F4148E8FEF9FEF968F858F2B
:1014D00011A296E0E90EF11CEEE6EE16E2E0FE0641
:1014E00069F7B12C80919802B81608F053C0A12C6E
:1014F000CB2CD12CCC0CDD1CC601865C9D4F6C0125
:1015000020919902A21608F043C0F6016081718112
:101510000A2C02C0769567950A94E2F7B29E900174
:1015200011242A0D311DE2E3F2E080E0458D568D55
:101530002417350709F42CC18F5F36968A30B1F72E
:1015400060FF24C0E2E3F2E090E080E0448D4111CE
:1015500018C0E0919202F0919302E20FF31F4081D4
:1015600056E0589FF001599FF00D1124EE5CFD4F9D
:10157000448F368F258F10A2178E61E00E941501CF
:1015800005C0019636968A30910501F7A394B8CF2D
:10159000B394A8CF80E0F80191A19111892F0A5F3F
:1015A0001F4FE016F106B9F79FB7F89440916C0110
:1015B00050916D0160916E0170916F019FBF4093DA
:1015C0008E0250938F026093900270939102882351
:1015D000D1F0809153028823B1F080915102909113
:1015E0005202019781F480914E0281110FC0811443
:1015F000910409F4C2CE0E94EF01882309F4BDCE04
:101600000E940000BACE10929E02F1CF8A3209F0F9
:101610004DC02091A5023091A6028091AB0290911D
:10162000AC0228173907C1F48091A1029091A2025F
:101630006091A7027091A802009709F4ABC06115F0
:10164000710539F4232B09F4B3C0FC01808190E0CB
:10165000ACC00E94940EA9C080916A0190916B0168
:10166000019690936B0180936A0182E591E00E945C
:10167000C30561E08BE00E94E70280916A019091CE
:101680006B010E94D4030E947E030E9407050E9402
:10169000B00560E08BE00E94E70261E571E081EA5D
:1016A00092E00E9400060E94B803A1CF833229F481
:1016B00090E080E00E948D009ACF2091A5023091A9
:1016C000A6022530310540F180916A0190916B01AD
:1016D000019690936B0180936A018AE591E00E94E4
:1016E000C30561E08BE00E94E70280916A0190915E
:1016F0006B010E94D4030E947E0361E571E081EAE0
:1017000092E00E9400060E9407050E94B0050E9418
:10171000B80360E08BE066C01A8219821C821B82CB
:101720001E821D828F831886BE01695F7F4FCE01A6
:1017300001960E940006E980FA80E114F10419F193
:101740000D811E8101151105F1F08091A502909186
:10175000A602080F191FB80181EA92E00E94D8057D
:10176000882389F02091A1023091A2028091A502E4
:101770009091A602B701820F931F0E949D0E1093B5
:10178000A6020093A502CE0101960E94D0052FCF9C
:101790006170F4CE6115710559F0232B49F0FB01FE
:1017A000808190E0919581959109892B09F054CF22
:1017B00087E491E00E94C30561E08AE00E94E702AD
:1017C0008AE590E00E948D000E947E030E9407053A
:1017D0000E94B00561E571E081EA92E00E94000696
:1017E00060E08AE00E94E70202CF81EA92E00E9474
:1017F000D00587EA92E00C94D005052E97FB1EF4E5
:1018000000940E94140C57FD07D00E94660C07FC40
:1018100003D04EF40C94140C5095409530952195BE
:101820003F4F4F4F5F4F089590958095709561950C
:101830007F4F8F4F9F4F08950E94880CA59F900D5A
:10184000B49F900DA49F800D911D11240895B7FFA2
:101850000C941C0C0E941C0C821B930B08952F925D
:101860003F924F925F926F927F928F929F92AF9230
:10187000BF92CF92DF92EF92FF920F931F93CF937D
:10188000DF93CDB7DEB7CA1BDB0B0FB6F894DEBF14
:101890000FBECDBF09942A88398848885F846E843A
:1018A0007D848C849B84AA84B984C884DF80EE8084
:1018B000FD800C811B81AA81B981CE0FD11D0FB68D
:1018C000F894DEBF0FBECDBFED010895A1E21A2E40
:1018D000AA1BBB1BFD010DC0AA1FBB1FEE1FFF1FD4
:1018E000A217B307E407F50720F0A21BB30BE40B24
:1018F000F50B661F771F881F991F1A9469F760956B
:101900007095809590959B01AC01BD01CF01089524
:10191000A29FB001B39FC001A39F700D811D112430
:10192000911DB29F700D811D1124911D0895991B69
:1019300079E004C0991F961708F0961B881F7A95C6
:10194000C9F780950895EE0FFF1F0590F491E02DE3
:1019500009940F931F93CF93DF938230910510F476
:1019600082E090E0E091CA02F091CB0230E020E00A
:10197000B0E0A0E0309799F42115310509F44AC090
:10198000281B390B24303105D8F58A819B816115DC
:10199000710589F1FB0193838283FE0111C04081AF
:1019A00051810281138148175907E0F04817590700
:1019B00099F4109761F012960C93129713961C935A
:1019C0003296CF01DF91CF911F910F91089500932F
:1019D000CA021093CB02F4CF2115310551F0421702
:1019E000530738F0A901DB019A01BD01DF01F801BD
:1019F000C1CFEF01F9CF9093CB028093CA02CDCF34
:101A0000FE01E20FF31F8193919322503109398334
:101A10002883D7CF2091C8023091C902232B41F4EB
:101A200020911501309116013093C9022093C8020C
:101A300020911301309114012115310541F42DB786
:101A40003EB74091170150911801241B350BE091CE
:101A5000C802F091C902E217F307A0F42E1B3F0B56
:101A60002817390778F0AC014E5F5F4F2417350710
:101A700048F04E0F5F1F5093C9024093C8028193F4
:101A800091939FCFF0E0E0E09CCFCF93DF9300975E
:101A9000E9F0FC01329713821282A091CA02B09140
:101AA000CB02ED0130E020E01097A1F420813181DC
:101AB000820F931F2091C8023091C902281739075D
:101AC00009F061C0F093C902E093C802DF91CF91A1
:101AD0000895EA01CE17DF07E8F54A815B819E0190
:101AE00041155105B1F7E901FB83EA834991599109
:101AF000C40FD51FEC17FD0761F480819181029618
:101B0000840F951FE90199838883828193819B8348
:101B10008A83F0E0E0E012968D919C9113970097F4
:101B2000B9F52D913C911197CD010296820F931F2B
:101B30002091C8023091C9022817390739F6309729
:101B400051F51092CB021092CA02B093C902A09331
:101B5000C802BCCFD383C28340815181840F951FBB
:101B6000C817D90761F44E5F5F4F88819981480F8C
:101B7000591F518340838A819B81938382832115DE
:101B8000310509F0B0CFF093CB02E093CA029ECFAB
:101B9000FD01DC01C0CF13821282D7CFB0E0A0E0FC
:101BA000E4EDFDE00C94310C8C01009751F4CB0175
:101BB0000E94A90C8C01C801CDB7DEB7E0E10C94FE
:101BC0004D0CFC01E60FF71F9C0122503109E21772
:101BD000F30708F49DC0D901CD91DC911197C61788
:101BE000D70798F0C530D10530F3CE01049786179A
:101BF000970708F3C61BD70B2297C193D1936D9318
:101C00007C93CF010E94450DD6CF5B01AC1ABD0A73
:101C10004C018C0E9D1EA091CA02B091CB02512C9A
:101C2000412CF12CE12C109731F58091C802909154
:101C3000C9028815990509F05CC04616570608F0D8
:101C400058C08091130190911401009741F48DB711
:101C50009EB74091170150911801841B950BE8170E
:101C6000F90708F055C0F093C902E093C802F901E2
:101C700071836083A0CF8D919C91119712966C9087
:101C8000129713967C901397A815B90559F56C0116
:101C900042E0C40ED11CCA14DB0420F1AC014A1985
:101CA0005B09DA011296159780F062827382518384
:101CB0004083D9016D937C93E114F10471F0D70155
:101CC0001396FC93EE93129776CF22968C0F9D1F5E
:101CD000F90191838083F301EFCFF093CB02E0937E
:101CE000CA0269CF4816590608F42C017D01D301B8
:101CF0009ACFCB010E94A90C7C01009749F0AE015C
:101D0000B8010E948B0EC8010E94450D870153CF78
:101D100010E000E050CFFB01DC0102C001900D9209
:101D200041505040D8F70895FB01DC018D9101909E
:101D300080190110D9F3990B0895FB01DC01019082
:101D40000D920020E1F7089510E0C2E6D0E004C053
:101D5000FE010E94A30C2196C336D107C9F7F8945F
:021D6000FFCFB3
:101D6200181716191A1B1C313233343536373839E5
:101D72002A30230000CC02800000000000250285EA
:101D820001B2017202E301C101D501000000005558
:101D9200031503E40200000000BD058501B503B48C
:101DA2000331323334350020537563636573732115
:101DB2002000204661696C642100746F6F206C6F93
:041DC2006E67000048
:00000001FF
